:1004CE0050617373776F72643A004F4B2000455240
:0204DE005200CA
:10018C001204BA7BFF7A0479CE7D017F011204310F
:10019C001200031202E08F1CE51C60F4D3940A5089
:1001AC0041C3E5199404E51894005028AE1AAF1B0E
:1001BC007C007D0A1202798E1A8F1BE51C75F00AE1
:1001CC0084E5F0251BF51BE4351AF51A0519E5191C
:1001DC0070020518750C04AB1BAA1A7D017F021264
:1001EC000472E51C640B7036E51BB4290DE51AB4DA
:1001FC0009087BFF7A0479D880067BFF7A0479DCC6
:10020C007D0E7F01120431E4F51AF51BF518F51972
:10021C00750C04AB1BAA1A7D017F02120472E51C3B
:10022C00640C600302019CF51AF51BF518F51975A1
:10023C000C04AB1BAA1A7D017F0212047202019CF2
:1002E000EF14B40F0050699002F575F003A4C583B4
:1002F00025F0C5837302032202032602032A0203A8
:100300005002032E02033202033602035002033A64
:1003100002033E02034202035002034602034A0262
:10032000034E7E01802A7E0280267E0380227E0488
:10033000801E7E05801A7E0680167E0780127E084B
:10034000800E7E09800A7E0C80067E0A80027E0B6B
:02035000AF06F6
:010352002288
:1004A500EF1FAC0670011E4C600A7D027CEFDCFE7E
:0404B500DDFC80ECFE
:0104B9002220
:0604E000C2A58F80D2A727
:0804E6007F027EEFDEFEDFFC69
:0104EE0022EB
:0A04FB00C2A61204E0C2A70204E644
:10045400CFCDCFCECCCE12028B7C007D0A12028B84
:04046400ED2430FF54
:0A046800D2A61204E0C2A70204E6C7
:10048F00AE07BE0104ED148006BE0209ED243F4401
:06049F0080FF1204FB22A5
:1004BA007F381204FB7F0C1204FB7F061204FB7FB9
:0404CA00010204FB2C
:0A050500AC0312048FAF0402046877
:060431008B088A09890A0C
:1004370012048FE4FDAB08AA09A90A8D827583000F
:0C04470012024CFF60061204680D80E9F0
:010453002286
:0C03FE007F0AEA24FFFDE434FFFC7E00CF
:08040A008E0D8F0E8C0F8D107A
:100412007F017E00E4FBEBC39510E50F6480F87466
:0E0422008098500AAC0DAD0E1202790B80E8E6
:0104300022A9
:040472008A0A8B0B5C
:1004760012048FAA0CEAD39400400D1203FEAC0AB4
:08048600AD0B1204541A80EDC5
:01048E00224B
:1003530012048FC3EA64809480400B7F2B120468DD
:100363008A168B17800E7F2D120468C3E49BF51742
:10037300E49AF516AA15EAD39400400D1203FEACD5
:0903830016AD171204541A80EDA6
:01038C00224E
:04038D008A1F8B2018
:1003910012048FAA21EAD3940040297F101204008D
:1003A100AC1FAD20CFCDCFCECCCE12028BEF540FF0
:1003B100FEC3940AEE5004243080022437FF120455
:0403C100681A80D165
:0103C5002215
:0403C6008A248B25D5
:1003CA0012048FAA26EAD394004028EA24FFFDE407
:1003DA0034FFFC7F027E0012040AAC24AD25CFCD87
:1003EA00CFCECCCE12028BEF54012430FF12046818
:0303FA001A80D294
:0103FD0022DD
:10000300E4F5087590FFC2932097137F14FE120442
:10001300A53097FD7F147E001204A5750801209674
:10002300147F147E001204A53096FD7F147E001207
:1000330004A57508052095147F147E001204A530CD
:1000430095FD7F147E001204A57508092094147F82
:10005300147E001204A53094FD7F147E001204A5C3
:1000630075080D7590FFC2922097147F147E0012BD
:1000730004A53097FD7F147E001204A575080220A5
:1000830096147F147E001204A53096FD7F147E0023
:100093001204A57508062095147F147E001204A58A
:1000A3003095FD7F147E001204A575080A20941470
:1000B3007F147E001204A53094FD7F147E00120489
:1000C300A575080E7590FFC2912097147F147E00CA
:1000D3001204A53097FD7F147E001204A575080352
:1000E3002096147F147E001204A53096FD7F147EA3
:1000F300001204A57508072095147F147E001204CE
:10010300A53095FD7F147E001204A575080B20947D
:10011300147F147E001204A53094FD7F147E001218
:1001230004A575080F7590FFC2902097147F147E65
:10013300001204A53097FD7F147E001204A57508F4
:10014300042096147F147E001204A53096FD7F14BC
:100153007E001204A57508082095147F147E0012F2
:1001630004A53095FD7F147E001204A575080C20AC
:1001730094147F147E001204A53094FD7F147E0036
:080183001204A5750810AF0875
:01018B002251
:030000000204EF08
:0C04EF00787FE4F6D8FD75812602018CB0
:10024C00BB010CE58229F582E5833AF583E0225067
:10025C0006E92582F8E622BBFE06E92582F8E222B1
:0D026C00E58229F582E5833AF583E49322CB
:10027900EF8DF0A4A8F0CF8CF0A428CE8DF0A42E99
:02028900FE2253
:10028B00BC000BBE0029EF8DF084FFADF022E4CC57
:10029B00F875F008EF2FFFEE33FEEC33FCEE9DEC20
:1002AB00984005FCEE9DFE0FD5F0E9E4CEFD22ED66
:1002BB00F8F5F0EE8420D21CFEADF075F008EF2FB0
:1002CB00FFED33FD4007985006D5F0F222C398FDA1
:0502DB000FD5F0EA223E
:00000001FF
