:1004BF0050415353574F5244004F4B200045525217
:0104CF00002C
:0D018C007BFF7A0479BF7D017F0112042200
:10019900751D03E51DD3940A5038C3E51C9404E585
:1001A9001B64809480501CE51E75F00AA4F51EE5B9
:1001B9001D75F00A84E5F0251EF51E051CE51C7069
:1001C90002051BE51EFB7A00750E047D017F0212F4
:1001D9000463E51D640B703BAF1EFEBE0412BFD263
:1001E9000F7BFF7A0479C87D0D7F0112042280FEFE
:1001F9007BFF7A0479CC7D0D7F01120422E4F51E80
:10020900F51BF51CE51EFB7A00750E047D017F02C6
:10021900120463E51D640C6003020199F51EF51BC8
:10022900F51CE51EFB7A00750E047D017F021204A0
:010239006361
:03023A0002019925
:1002D100EF14B40F0050699002E675F003A4C583D2
:1002E10025F0C5837302031302031702031B0203E4
:1002F1004102031F02032302032702034102032BCE
:1003010002032F02033302034102033702033B02BC
:10031100033F7E01802A7E0280267E0380227E04A6
:10032100801E7E05801A7E0680167E0780127E085A
:10033100800E7E09800A7E0B80067E0A80027E0C7A
:02034100AF0605
:010343002297
:10049600EF1FAC0670011E4C600A7D027CEFDCFE8D
:0404A600DDFC80EC0D
:0104AA00222F
:0604D000C2A58F80D2A737
:0804D6007F027EEFDEFEDFFC79
:0104DE0022FB
:0A04EB00C2A61204D0C2A70204D674
:10044500CFCDCFCECCCE12027C7C007D0A12027CB1
:04045500ED2430FF63
:0A045900D2A61204D0C2A70204D6F6
:10048000AE07BE0104ED148006BE0209ED243F4410
:0604900080FF1204EB22C4
:1004AB007F381204EB7F0C1204EB7F061204EB7FF8
:0404BB00010204EB4B
:0A04F500AC03120480AF04020459A6
:060422008B0A8A0B890C15
:10042800120480E4FDAB0AAA0BA90C8D8275830027
:0C04380012023DFF60061204590D80E91D
:010444002295
:0C03EF007F0AEA24FFFDE434FFFC7E00DE
:0803FB008E0F8F108C118D1282
:100403007F017E00E4FBEBC39512E5116480F87471
:0E0413008098500AAC0FAD1012026A0B80E800
:0104210022B8
:040463008A0C8B0D67
:10046700120480AA0EEAD39400400D1203EFAC0CDD
:08047700AD0D1204451A80EDE1
:01047F00225A
:10034400120480C3EA64809480400B7F2B1204590A
:100354008A188B19800E7F2D120459C3E49BF5195A
:10036400E49AF518AA17EAD39400400D1203EFACEF
:0903740018AD191204451A80EDC0
:01037D00225D
:04037E008A218B2223
:10038200120480AA23EAD3940040297F101203F1B9
:10039200AC21AD22CFCDCFCECCCE12027CEF540F0A
:1003A200FEC3940AEE5004243080022437FF120464
:0403B200591A80D183
:0103B6002224
:0403B7008A268B27E0
:1003BB00120480AA28EAD394004028EA24FFFDE423
:1003CB0034FFFC7F027E001203FBAC26AD27CFCDA2
:1003DB00CFCECCCE12027CEF54012430FF12045945
:0303EB001A80D2A3
:0103EE0022EC
:10000300E4F50A7590FFC2932097137F14FE120440
:10001300963097FD7F147E00120496750A01209690
:10002300147F147E001204963096FD7F147E001216
:100033000496750A052095147F147E0012049630E9
:1000430095FD7F147E00120496750A092094147F8F
:10005300147E001204963097FD7F147E00120496DE
:10006300750A0D7590FFC2922097147F147E0012BB
:1000730004963097FD7F147E00120496750A0220C1
:1000830096147F147E001204963096FD7F147E0032
:10009300120496750A062095147F147E00120496A6
:1000A3003095FD7F147E00120496750A0A2094147D
:1000B3007F147E001204963097FD7F147E00120495
:1000C30096750A0E7590FFC2912097147F147E00D7
:1000D3001204963097FD7F147E00120496750A036E
:1000E3002096147F147E001204963096FD7F147EB2
:1000F30000120496750A072095147F147E001204DB
:10010300963095FD7F147E00120496750A0B209499
:10011300147F147E001204963097FD7F147E001224
:100123000496750A0F7590FFC2902097147F147E72
:10013300001204963097FD7F147E00120496750A10
:10014300042096147F147E001204963096FD7F14CB
:100153007E00120496750A082095147F147E0012FF
:1001630004963095FD7F147E00120496750A0C20C8
:1001730094147F147E001204963097FD7F147E0042
:08018300120496750A10AF0A80
:01018B002251
:030000000204DF18
:0C04DF00787FE4F6D8FD75812802018CBE
:10023D00BB010CE58229F582E5833AF583E0225076
:10024D0006E92582F8E622BBFE06E92582F8E222C0
:0D025D00E58229F582E5833AF583E49322DA
:10026A00EF8DF0A4A8F0CF8CF0A428CE8DF0A42EA8
:02027A00FE2262
:10027C00BC000BBE0029EF8DF084FFADF022E4CC66
:10028C00F875F008EF2FFFEE33FEEC33FCEE9DEC2F
:10029C00984005FCEE9DFE0FD5F0E9E4CEFD22ED75
:1002AC00F8F5F0EE8420D21CFEADF075F008EF2FBF
:1002BC00FFED33FD4007985006D5F0F222C398FDB0
:0502CC000FD5F0EA224D
:00000001FF
