:1004D00050617373776F72643A004F4B200045523E
:0204E0005200C8
:10018C001204BC7BFF7A0479D07D017F0112043309
:10019C001200038F1D1202E28F1AE51A60F2D3943B
:1001AC000A5041C3E5199404E51894005028AE1B7D
:1001BC00AF1C7C007D0A12027B8E1B8F1CE51A750E
:1001CC00F00A84E5F0251CF51CE4351BF51B05191C
:1001DC00E51970020518750C04AB1CAA1B7D017F78
:1001EC0002120474E51A640C7036E51CB4D20DE5E9
:1001FC001BB404087BFF7A0479DA80067BFF7A044F
:10020C0079DE7D0E7F01120433E4F51BF51CF51825
:10021C00F519750C04AB1CAA1B7D017F021204742A
:10022C00E51A640B600302019CF51BF51CF518F52F
:10023C0019750C04AB1CAA1B7D017F0212047402FD
:02024C00019C13
:1002E200EF14B40F0050699002F775F003A4C583B0
:1002F20025F0C5837302032402032802032C0203A0
:100302005202033002033402033802035202033C56
:1003120002034002034402035202034802034C0256
:1003220003507E01802A7E0280267E0380227E0484
:10033200801E7E05801A7E0680167E0780127E0849
:10034200800E7E09800A7E0B80067E0A80027E0C69
:02035200AF06F4
:010354002286
:1004A700EF1FAC0670011E4C600A7D027CEFDCFE7C
:0404B700DDFC80ECFC
:0104BB00221E
:0604E200C2A58F80D2A725
:0804E8007F027EEFDEFEDFFC67
:0104F00022E9
:0A04FD00C2A61204E2C2A70204E83E
:10045600CFCDCFCECCCE12028D7C007D0A12028D7E
:04046600ED2430FF52
:0A046A00D2A61204E2C2A70204E8C1
:10049100AE07BE0104ED148006BE0209ED243F44FF
:0604A10080FF1204FD22A1
:1004BC007F381204FD7F0C1204FD7F061204FD7FB1
:0404CC00010204FD28
:0A050700AC03120491AF0402046A71
:060433008B088A09890A0A
:10043900120491E4FDAB08AA09A90A8D827583000B
:0C04490012024EFF600612046A0D80E9EA
:010455002284
:0C0400007F0AEA24FFFDE434FFFC7E00CC
:08040C008E0D8F0E8C0F8D1078
:100414007F017E00E4FBEBC39510E50F6480F87464
:0E0424008098500AAC0DAD0E12027B0B80E8E2
:0104320022A7
:040474008A0A8B0B5A
:10047800120491AA0CEAD39400400D120400AC0AAD
:08048800AD0B1204561A80EDC1
:010490002249
:10035500120491C3EA64809480400B7F2B12046AD7
:100365008A168B17800E7F2D12046AC3E49BF5173E
:10037500E49AF516AA15EAD39400400D120400ACD0
:0903850016AD171204561A80EDA2
:01038E00224C
:04038F008A208B2114
:10039300120491AA22EAD3940040297F1012040286
:1003A300AC20AD21CFCDCFCECCCE12028DEF540FEA
:1003B300FEC3940AEE5004243080022437FF120453
:0403C3006A1A80D161
:0103C7002213
:0403C8008A258B26D1
:1003CC00120491AA27EAD394004028EA24FFFDE402
:1003DC0034FFFC7F027E0012040CAC25AD26CFCD81
:1003EC00CFCECCCE12028DEF54012430FF12046A12
:0303FC001A80D292
:0103FF0022DB
:10000300E4F5087590FFC2932097137F14FE120442
:10001300A73097FD7F147E001204A7750801209670
:10002300147F147E001204A73096FD7F147E001205
:1000330004A77508052095147F147E001204A730C9
:1000430095FD7F147E001204A77508092094147F80
:10005300147E001204A73097FD7F147E001204A7BC
:1000630075080D7590FFC2922097147F147E0012BD
:1000730004A73097FD7F147E001204A775080220A1
:1000830096147F147E001204A73096FD7F147E0021
:100093001204A77508062095147F147E001204A786
:1000A3003095FD7F147E001204A775080A2094146E
:1000B3007F147E001204A73097FD7F147E00120484
:1000C300A775080E7590FFC2912097147F147E00C8
:1000D3001204A73097FD7F147E001204A77508034E
:1000E3002096147F147E001204A73096FD7F147EA1
:1000F300001204A77508072095147F147E001204CC
:10010300A73095FD7F147E001204A775080B209479
:10011300147F147E001204A73097FD7F147E001213
:1001230004A775080F7590FFC2902097147F147E63
:10013300001204A73097FD7F147E001204A77508F0
:10014300042096147F147E001204A73096FD7F14BA
:100153007E001204A77508082095147F147E0012F0
:1001630004A73095FD7F147E001204A775080C20A8
:1001730094147F147E001204A73097FD7F147E0031
:080183001204A7750810AF0873
:01018B002251
:030000000204F106
:0C04F100787FE4F6D8FD75812702018CAD
:10024E00BB010CE58229F582E5833AF583E0225065
:10025E0006E92582F8E622BBFE06E92582F8E222AF
:0D026E00E58229F582E5833AF583E49322C9
:10027B00EF8DF0A4A8F0CF8CF0A428CE8DF0A42E97
:02028B00FE2251
:10028D00BC000BBE0029EF8DF084FFADF022E4CC55
:10029D00F875F008EF2FFFEE33FEEC33FCEE9DEC1E
:1002AD00984005FCEE9DFE0FD5F0E9E4CEFD22ED64
:1002BD00F8F5F0EE8420D21CFEADF075F008EF2FAE
:1002CD00FFED33FD4007985006D5F0F222C398FD9F
:0502DD000FD5F0EA223C
:00000001FF
