:0A03DB004D41525449584B4559005A
:1002FE007BFF7A0379DB7D017F011203231200035A
:10030E008F22E52260F7FB7A00750C027D017F02D9
:05031E0012036480E8F9
:10039700EF1FAC0670011E4C600A7D027CEFDCFE8D
:0403A700DDFC80EC0D
:0103AB00222F
:0603C000C2A58F80D2A748
:0803C6007F027EEFDEFEDFFC8A
:0103CE00220C
:0A03E500C2A61203C0C2A70203C69D
:10034600CFCDCFCECCCE1201CB7C007D0A1201CB15
:04035600ED2430FF63
:0A035A00D2A61203C0C2A70203C618
:10038100AE07BE0104ED148006BE0209ED243F4410
:0603910080FF1203E522CB
:1003AC007F381203E57F0C1203E57F061203E57F0D
:0403BC00010203E552
:0A03EF00AC03120381AF0402035AAD
:060323008B088A09890A1B
:10032900120381E4FDAB08AA09A90A8D827583002D
:0C03390012018CFF600612035A0D80E9CF
:010345002295
:0C02CB007F0AEA24FFFDE434FFFC7E0003
:0802D7008E0D8F0E8C0F8D10AF
:1002DF007F017E00E4FBEBC39510E50F6480F8749B
:0E02EF008098500AAC0DAD0E1201B90B80E8DC
:0102FD0022DE
:040364008A0A8B0B6B
:10036800120381AA0CEAD39400400D1202CBAC0A06
:08037800AD0B1203461A80EDE3
:01038000225A
:10022000120381C3EA64809480400B7F2B12035A2F
:100230008A168B17800E7F2D12035AC3E49BF51785
:10024000E49AF516AA15EAD39400400D1202CBAC3D
:0902500016AD171203461A80EDE9
:010259002282
:04025A008A1A8B1B56
:10025E00120381AA1CEAD3940040297F101202CD0A
:10026E00AC1AAD1BCFCDCFCECCCE1201CBEF540FEF
:10027E00FEC3940AEE5004243080022437FF12038A
:04028E005A1A80D1A7
:010292002249
:040293008A1F8B2013
:10029700120381AA21EAD394004028EA24FFFDE44F
:1002A70034FFFC7F027E001202D7AC1FAD20CFCDFA
:1002B700CFCECCCE1201CBEF54012430FF12035A1C
:0302C7001A80D2C8
:0102CA002211
:10000300E4F5087590FFC2932097137F14FE120343
:10001300973097FD7F147E00120397750801209691
:10002300147F147E001203973096FD7F147E001216
:1000330003977508052095147F147E0012039730EB
:1000430095FD7F147E001203977508092094147F91
:10005300147E001203973097FD7F147E00120397DE
:1000630075080D7590FFC2922097147F147E0012BD
:1000730003973097FD7F147E0012039775080220C3
:1000830096147F147E001203973096FD7F147E0032
:100093001203977508062095147F147E00120397A8
:1000A3003095FD7F147E0012039775080A2094147F
:1000B3007F147E001203973097FD7F147E00120396
:1000C3009775080E7590FFC2912097147F147E00D8
:1000D3001203973097FD7F147E0012039775080370
:1000E3002096147F147E001203973096FD7F147EB2
:1000F300001203977508072095147F147E001203DE
:10010300973095FD7F147E0012039775080B20949A
:10011300147F147E001203973097FD7F147E001224
:10012300039775080F7590FFC2902097147F147E74
:10013300001203973097FD7F147E00120397750812
:10014300042096147F147E001203973096FD7F14CB
:100153007E001203977508082095147F147E001201
:1001630003973095FD7F147E0012039775080C20CA
:1001730094147F147E001203973097FD7F147E0042
:08018300120397750810AF0884
:01018B002251
:030000000203CF29
:0C03CF00787FE4F6D8FD7581220202FE62
:10018C00BB010CE58229F582E5833AF583E0225028
:10019C0006E92582F8E622BBFE06E92582F8E22272
:0D01AC00E58229F582E5833AF583E493228C
:1001B900EF8DF0A4A8F0CF8CF0A428CE8DF0A42E5A
:0201C900FE2214
:1001CB00BC000BBE0029EF8DF084FFADF022E4CC18
:1001DB00F875F008EF2FFFEE33FEEC33FCEE9DECE1
:1001EB00984005FCEE9DFE0FD5F0E9E4CEFD22ED27
:1001FB00F8F5F0EE8420D21CFEADF075F008EF2F71
:10020B00FFED33FD4007985006D5F0F222C398FD61
:05021B000FD5F0EA22FE
:00000001FF
