:1000030020B10E1200CD30B1FD1200CD7508018074
:100013003120B00E1200CD30B0FD1200CD750802B4
:10002300802020B20E1200CD30B2FD1200CD750833
:1000330003800F20B3CA1200CD30B3FD1200CD757B
:100043000804E50824FE601314601914601F2403D8
:1000530070AE7FF47E0112007980F77FFA7E001282
:10006300007980F77F647E0012007980F77F327E0B
:060073000012007980F785
:0400CD007F147E001E
:1000D100EF1FAC0670011E4C600A7D027CEFDCFE56
:0400E100DDFC80ECD6
:0100E50022F8
:10007900AB07AA0675A0FEAF03AE021200D175A0A8
:10008900FDAF03AE021200D175A0FBAF03AE0212A1
:1000990000D175A0F7AF03AE021200D175A0EFAF82
:1000A90003AE021200D175A0DFAF03AE021200D178
:1000B90075A0BFAF03AE021200D175A07FAF03AE2A
:0400C900020200D15E
:030000000200E615
:0C00E600787FE4F6D8FD75810802000365
:00000001FF
