:04017E007F147E006C
:10018200EF1FAC0670011E4C600A7D027CEFDCFEA4
:04019200DDFC80EC24
:010196002246
:1000030020B15B12017E30B1FD12017E75A0FE7F2F
:10001300E87E0312018275A0FD7FE87E0312018250
:1000230075A0FB7FE87E0312018275A0F77FE87E4F
:100033000312018275A0EF7FE87E0312018275A08F
:10004300DF7FE87E0312018275A0BF7FE87E031283
:10005300018275A07F7FE87E0312018280AE20B00B
:100063005B12017E30B0FD12017E75A0FE7FF47E2F
:100073000112018275A0FD7FF47E0112018275A039
:10008300FB7FF47E0112018275A0F77FF47E0112DB
:10009300018275A0EF7FF47E0112018275A0DF7FDC
:1000A300F47E0112018275A0BF7FF47E01120182EA
:1000B30075A07F7FF47E0112018280AE20B25B12B5
:1000C300017E30B2FD12017E75A0FE7FFA7E001222
:1000D300018275A0FD7FFA7E0012018275A0FB7F6D
:1000E300FA7E0012018275A0F77FFA7E0012018268
:1000F30075A0EF7FFA7E0012018275A0DF7FFA7E82
:100103000012018275A0BF7FFA7E0012018275A0E2
:100113007F7FFA7E0012018280AE30B303020003B8
:1001230012017E30B3FD12017E75A0FE7F647E0056
:1001330012018275A0FD7F647E0012018275A0FB0F
:100143007F647E0012018275A0F77F647E00120136
:100153008275A0EF7F647E0012018275A0DF7F6449
:100163007E0012018275A0BF7F647E00120182753A
:0B017300A07F7F647E0012018280AE3E
:0300000002019763
:0C019700787FE4F6D8FD758107020003B4
:00000001FF
