:040145007F147E00A5
:10014900EF1FAC0670011E4C600A7D027CEFDCFEDD
:04015900DDFC80EC5D
:01015D00227F
:1000030020B10D12014530B1FD120145E4FB802EF4
:1000130020B00D12014530B0FD1201457B01801E59
:1000230020B20D12014530B2FD1201457B02800E54
:1000330020B3CD12014530B3FD1201457B03EB1410
:10004300605C1470030200F3240270B475A0FE7F99
:10005300F47E0112014975A0FD7FF47E011201496E
:1000630075A0FB7FF47E0112014975A0F77FF47E32
:100073000112014975A0EF7FF47E0112014975A0B9
:10008300DF7FF47E0112014975A0BF7FF47E011268
:10009300014975A07F7FF47E0112014980AE75A0EE
:1000A300FE7FFA7E0012014975A0FD7FFA7E0012E1
:1000B300014975A0FB7FFA7E0012014975A0F77F05
:1000C300FA7E0012014975A0EF7FFA7E0012014902
:1000D30075A0DF7FFA7E0012014975A0BF7FFA7E0B
:1000E3000012014975A07F7FFA7E0012014980AE9C
:1000F30075A0FE7F647E0012014975A0FD7F647EBA
:100103000012014975A0FB7F647E0012014975A0AE
:10011300F77F647E0012014975A0EF7F647E0012B1
:10012300014975A0DF7F647E0012014975A0BF7F7E
:10013300647E0012014975A07F7F647E001201492D
:0201430080AE8C
:0300000002015E9C
:0C015E00787FE4F6D8FD758107020003ED
:00000001FF
